S00C0000756172742E737265635C
S11300000C9434000C9451000C9451000C94510045
S11300100C9451000C9451000C9451000C94510018
S11300200C9451000C9451000C9451000C94510008
S11300300C9451000C94A7010C9451000C945100A1
S11300400C9451000C9451000C94A5020C94D3020E
S11300500C9451000C94BC010C9451000C9451006C
S11300600C9451000C94510011241FBECFEFD8E022
S1130070DEBFCDBF11E0A0E0B1E0ECEAF6E002C0E3
S113008005900D92A635B107D9F721E0A6E5B1E0B8
S113009001C01D92AB39B207E1F70E9448010C94EC
S11300A054030C94000085B1826085B985E08A957B
S11300B0F1F7000085B18D7F85B90895CF93C82FDE
S11300C0662321F085B1816085B903C085B18E7F37
S11300D085B98AB180618AB98AB180628AB98AB1E4
S11300E080648AB98AB180688AB98BB18F778BB9F9
S11300F08BB18F7B8BB98BB18F7D8BB98BB18F7E9D
S11301008BB9CC231CF48BB180688BB9C6FF03C0B8
S11301108BB180648BB9C5FF03C08BB180628BB98E
S1130120C4FF03C08BB180618BB90E9453008BB1B3
S11301308F778BB98BB18F7B8BB98BB18F7D8BB95B
S11301408BB18F7E8BB9C3FF03C08BB180688BB931
S1130150C2FF03C08BB180648BB9C1FF03C08BB1F4
S113016080628BB9C0FF03C08BB180618BB90E94E0
S113017053008BB180618BB98BB180628BB98BB129
S113018080648BB98BB180688BB987EB9BE0019756
S1130190F1F700C00000CF91089560E00E945E0076
S11301A00895611104C080580E94CD0008958054C0
S11301B00E94CD00089581E00E94CD00089561E081
S11301C00E945E000895CF93DF93FC0103C00E9458
S11301D0DF00FE01EF01219680818111F8CFDF91CC
S11301E0CF910895CF93C82F84B1816084B98AB127
S11301F080628AB984B1826084B98AB180618AB923
S11302008AB180628AB98AB180648AB98AB1806805
S11302108AB98FEF99EF0197F1F700C000008BB115
S113022080628BB98BB180618BB90E9453008FE1DE
S11302309EE40197F1F700C000000E9453008FEF85
S113024090E00197F1F700C000000E9453008FEF87
S113025090E00197F1F700C000008BB18F7E8BB95D
S11302600E9453008FEF90E00197F1F700C0000067
S113027088E20E94CD0088E00E94CD000E94DB004D
S113028086E00E94CD008C2F0E94CD00CF9108956E
S11302908CE00E94F20060E081E00E94D10089E0DD
S11302A091E00E94E30061E083E00E94D10080E1DC
S11302B091E00E94E30060E088E00E94D10085E1C3
S11302C091E00E94E30060E08DE00E94D10087E1AC
S11302D091E00E94E30061E088E00E94D10089E19E
S11302E091E00E94E300ECE7F0E080818064808389
S11302F080818F7780838081877F808380818B7FDB
S1130300808380818D7F808380818E7F8083EAE7F4
S1130310F0E0808180688083808188608083808130
S11303208460808380818260808380818160808317
S1130330E1E8F0E080818B7F80838081836080832B
S1130340EFE6F0E08081816080837894FFCF1F9294
S11303500F920FB60F9211248F93EF93FF93EAE756
S1130360F0E0808180648083FF91EF918F910F9002
S11303700FBE0F901F9018951F920F920FB60F92F9
S113038011240F931F932F933F934F935F936F9376
S11303907F938F939F93AF93BF93EF93FF93CF93E9
S11303A0DF93CDB7DEB72C97DEBFCDBF80E390E3FC
S11303B09A8389839C838B8388E0E0E0F1E0DE010B
S11303C0159601900D928A95E1F760E088E00E940D
S11303D0D100CE0105960E94E300009178001091AF
S11303E079004AE0BE016F5F7F4FC8010E941F037E
S11303F060E088E00E94D100CE0101960E94E300F3
S1130400CE0101960E9412038BE191E00E94120337
S113041040E1BE016F5F7F4FC8010E941F0360E08F
S11304208DE00E94D100CE0101960E94E300CE012E
S113043001960E9412038BE191E00E94120361E095
S113044088E00E94D100CE0105960E94E30061E09D
S113045088E00E94D1000D3F83E0180768F080E235
S113046091E00E94E30080E291E00E9412038BE19C
S113047091E00E9412034EC0093582E0180768F02B
S113048089E291E00E94E30089E291E00E94120374
S11304908BE191E00E9412033DC0073881E0180708
S11304A068F082E391E00E94E30082E391E00E941D
S11304B012038BE191E00E9412032CC0093C110548
S11304C068F08BE391E00E94E3008BE391E00E94EB
S11304D012038BE191E00E9412031CC00135110547
S11304E068F084E491E00E94E30084E491E00E94D7
S11304F012038BE191E00E9412030CC08DE491E0A1
S11305000E94E3008DE491E00E9412038BE191E0EC
S11305100E9412032C960FB6F894DEBF0FBECDBF17
S1130520DF91CF91FF91EF91BF91AF919F918F9107
S11305307F916F915F914F913F912F911F910F91F7
S11305400F900FBE0F901F9018951F920F920FB629
S11305500F9211242F938F939F93EF93FF93809186
S1130560C0002091C6008C71E0915801EF5FEF71DB
S113057090915701E91739F0E0935801F0E0E55AFA
S1130580FE4F208301C082E090915601892B809315
S11305905601FF91EF919F918F912F910F900FBE74
S11305A00F901F9018951F920F920FB60F9211245F
S11305B08F939F93EF93FF9390915A0180915901E8
S11305C0981769F0E0915901EF5FEF71E0935901D9
S11305D0F0E0E558FE4F80818093C60005C0E1EC51
S11305E0F0E080818F7D8083FF91EF919F918F91C7
S11305F00F900FBE0F901F90189520915A012F5FF6
S11306002F71909159012917E1F3E22FF0E0E55899
S1130610FE4F808320935A01E1ECF0E080818062F8
S113062080830895CF93DF93EC0103C021960E9449
S1130630FD0288818111FACFDF91CF910895BB2704
S11306404A3031F4992322F4BDE2909581959F4F6D
S11306500C942B03BB27FB015527AA27880F991F4E
S1130660AA1FA41710F0A41B83955051B9F7A05DDD
S1130670AA3308F0A95DA193009779F7B111B1935A
S11306801192CB010C944403DC01FC01672F71919E
S11306907723E1F7329704C07C916D937083629164
S10F06A0AE17BF07C8F30895F894FFCF0D
S11306AC20202020202020200076616C75653A00E3
S11306BC6B65793A006100620063002F6E2F720043
S11306CC4E4F4E45202020200053454C454354208A
S11306DC20004C4546542020202000444F574E20E7
S11306EC2020200055502020202020200052494753
S10906FC485420202000F8
S9030000FC
