S00B00006932632E737265631B
S11300000C9434000C9451000C9451000C94510045
S11300100C9451000C9451000C9451000C94510018
S11300200C9451000C9451000C9451000C94510008
S11300300C9451000C946C000C9451000C945100DD
S11300400C9451000C9451000C9442010C947001D6
S11300500C9451000C9451000C9451000C945100D8
S11300600C9451000C94510011241FBECFEFD8E022
S1130070DEBFCDBF11E0A0E0B1E0ECE1F4E002C0EE
S113008005900D92AC34B107D9F721E0ACE4B1E0AE
S113009001C01D92A339B207E1F70E9453000C94EA
S11300A00C020C9400000E94120187E690E00E946A
S11300B09A01E1E8F0E080818A7F80838081826018
S11300C08083EFE6F0E0808181608083789481E032
S11300D091E00E94CA01FFCF1F920F920FB60F92B8
S11300E011241F932F933F934F935F936F937F93A9
S11300F08F939F93AF93BF93EF93FF93CF93DF932C
S113010000D0CDB7DEB780E390E39A8389838091F2
S113011000018230D1F1833009F451C0813009F0FB
S113012068C080914D0198EF980F903720F482E0D9
S11301308093000124C0883048F485E291E00E9455
S1130140CA0188E291E00E94CA0119C08837B9F453
S11301508BE291E00E94CA0180914C014AE0BE0109
S11301606F5F7F4F90E00E94D701CE0101960E94FD
S1130170CA0183E491E00E94CA0110924C0180916B
S11301804D018F5F80934D0137C080914D01880FE1
S11301900E942101182F0E943E01111104C083E026
S11301A08093000129C088E491E00E94CA0188E29A
S11301B091E00E94CA0181E0809300011DC08091FA
S11301C04D0140E1BE016F5F7F4F90E00E94D70177
S11301D0CE0101960E94CA0188E291E00E94CA0100
S11301E080914C018F5F80934C0181E080930001EA
S11301F003C081E0809300010F900F90DF91CF91B5
S1130200FF91EF91BF91AF919F918F917F916F91EA
S11302105F914F913F912F911F910F900FBE0F90BF
S11302201F90189587B18F7C87B988B1806388B98E
S1130230E9EBF0E080818C7F808388E98093B800CB
S1130240089594EA9093BC009091BC009923E4F73C
S11302508093BB0084E88093BC008091BC00882319
S1130260E4F78091B900887F883121F0803421F44B
S113027080E0089580E0089581E0089584E9809302
S1130280BC0008951F920F920FB60F9211242F9362
S11302908F939F93EF93FF938091C0002091C600AA
S11302A08C71E0915001EF5FEF7190914F01E9176C
S11302B039F0E0935001F0E0ED5AFE4F208301C085
S11302C082E090914E01892B80934E01FF91EF9132
S11302D09F918F912F910F900FBE0F901F901895A3
S11302E01F920F920FB60F9211248F939F93EF9347
S11302F0FF939091520180915101981769F0E09118
S11303005101EF5FEF71E0935101F0E0ED58FE4FC2
S113031080818093C60005C0E1ECF0E080818F7D90
S11303208083FF91EF919F918F910F900FBE0F905B
S11303301F90189510925201109251011092500181
S113034010924F01282F392F33231CF422E02093DD
S1130350C00090789093C5008093C40088E980938E
S1130360C10086E08093C2000895209152012F5F5E
S11303702F71909151012917E1F3E22FF0E0ED582C
S1130380FE4F808320935201E1ECF0E08081806293
S113039080830895CF93DF93EC0103C021960E94DC
S11303A0B50188818111FACFDF91CF910895BB27E0
S11303B04A3031F4992322F4BDE2909581959F4F00
S11303C00C94E301BB27FB015527AA27880F991F2B
S11303D0AA1FA41710F0A41B83955051B9F7A05D70
S11303E0AA3308F0A95DA193009779F7B111B193ED
S11303F01192CB010C94FC01DC01FC01672F71917B
S11304007723E1F7329704C07C916D9370836291F6
S10F0410AE17BF07C8F30895F894FFCF9F
S113041C010D0A416C6C20796F75722062617365F1
S113042C206172652062656C6F6E6720746F207535
S113043C733A0D0A005241002020000D0A0D4E752E
S113044C6D626572206F66206465766963657320DE
S10F045C3A20000D0A0D20002D2D000098
S9030000FC
