S00C00006C6564322E73726563B1
S11300000C9434000C943E000C943E000C943E007E
S11300100C943E000C943E000C943E000C943E0064
S11300200C943E000C943E000C943E000C943E0054
S11300300C943E000C943E000C943E000C943E0044
S11300400C943E000C943E000C943E000C943E0034
S11300500C943E000C943E000C943E000C943E0024
S11300600C943E000C943E0011241FBECFEFD8E048
S1130070DEBFCDBF0E9440000C9428010C94000008
S113008084B1806284B985B18F7D85B985B1806280
S113009085B985B92FEF8EE994E2215080409040D4
S11300A0E1F700C0000085B18F7D85B92FEF84E3AF
S11300B09CE0215080409040E1F700C0000085B1F1
S11300C0806285B985B92FEF84E39CE0215080409C
S11300D09040E1F700C0000085B18F7D85B92FEF16
S11300E084E39CE0215080409040E1F700C0000090
S11300F085B1806285B985B92FEF84E39CE02150F6
S113010080409040E1F700C0000085B18F7D85B943
S11301102FEF8EE994E2215080409040E1F700C037
S1130120000085B1806285B985B92FEF84E39CE036
S1130130215080409040E1F700C0000085B18F7DE0
S113014085B92FEF8EE994E2215080409040E1F789
S113015000C0000085B1806285B985B92FEF84E3C2
S11301609CE0215080409040E1F700C0000085B140
S11301708F7D85B92FEF84E39CE02150804090402F
S1130180E1F700C0000085B1806285B985B92FEF21
S113019084E39CE0215080409040E1F700C00000DF
S11301A085B18F7D85B92FEF84E39CE02150804099
S11301B09040E1F700C0000085B1806285B985B93F
S11301C02FEF8EE994E2215080409040E1F700C087
S11301D0000085B18F7D85B92FEF84E39CE0215029
S11301E080409040E1F700C0000085B1806285B98D
S11301F085B92FEF8EE994E2215080409040E1F7D9
S113020000C0000085B18F7D85B92FEF84E39CE0A9
S1130210215080409040E1F700C0000085B1806229
S113022085B985B92FEF8EE994E221508040904042
S1130230E1F700C0000085B18F7D85B92FEF82E71B
S113024095E5215080409040E1F700C000001ECFAA
S1070250F894FFCF4C
S9030000FC
