S00C00006C6162322E73726563B7
S11300000C9434000C943E000C943E000C943E007E
S11300100C943E000C943E000C943E000C943E0064
S11300200C943E000C943E000C943E000C943E0054
S11300300C943E000C943E000C943E000C943E0044
S11300400C943E000C943E000C943E000C943E0034
S11300500C943E000C943E000C943E000C943E0024
S11300600C943E000C943E0011241FBECFEFD8E048
S1130070DEBFCDBF0E9440000C9477000C940000BA
S113008084B1806284B985B18F7D85B987B181607F
S113009087B988B1816088B988B98AB18F778AB9FC
S11300A08BB180688BB98BB94F99FECF2FEF89E65E
S11300B098E1215080409040E1F700C0000085B1F4
S11300C0806285B985B988B1816088B988B92FEF14
S11300D089E698E1215080409040E1F700C000009B
S11300E085B18F7D85B988B18E7F88B9DDCFF894CD
S10500F0FFCF3C
S9030000FC
