:100000000C9434000C9446000C9446000C9446006A
:100010000C9446000C9446000C9446000C94460048
:100020000C9446000C9446000C9446000C94460038
:100030000C9446000C94D1000C9446000C9446009D
:100040000C9446000C9446000C9446000C94460018
:100050000C9446000C9446000C9446000C94460008
:100060000C9446000C94460011241FBECFEFD8E03C
:10007000DEBFCDBF21E0A0E0B1E001C01D92A23003
:10008000B207E1F70E9485000C9442010C94000035
:10009000FC01408121E030E002C0220F331F6A954D
:1000A000E2F7242B20830895FC01908121E030E0C9
:1000B00002C0220F331F6A95E2F72095292320837F
:1000C0000895FC01908121E030E002C0220F331F2F
:1000D0006A95E2F72095292320830895FC01408149
:1000E00021E030E002C0220F331F6A95E2F7242B93
:1000F00020830895FC01208181E090E002C0880FF8
:10010000991F6A95E2F78223089565E084E290E002
:100110000E94480065E085E290E00E946E0064E085
:1001200084E290E00E94480064E085E290E00E9452
:100130006E0063E084E290E00E94480063E085E2A4
:1001400090E00E946E0062E084E290E00E9448002D
:1001500062E085E290E00E946E0061E087E290E05C
:100160000E945400EFE6F0E0808181608083789403
:1001700061E086E290E00E947A00811109C0E1E826
:10018000F0E080818A7F8083808182608083F0CFED
:10019000E1E8F0E080818B7F8083808183608083D1
:1001A000E7CF1F920F920FB60F9211242F933F9318
:1001B0004F935F936F937F938F939F93AF93BF936F
:1001C000EF93FF9380910101811106C0809100019E
:1001D0008F5F8093000105C0809100018150809362
:1001E000000180910001833019F491E090930101A6
:1001F000811102C01092010165E085E290E00E9449
:10020000610064E085E290E00E94610063E085E2C5
:1002100090E00E94610062E085E290E00E9461004F
:1002200080910001813061F028F0823079F08330D4
:1002300099F017C065E085E290E00E946E0011C061
:1002400064E085E290E00E946E000BC063E085E20E
:1002500090E00E946E0005C062E085E290E00E949E
:100260006E00FF91EF91BF91AF919F918F917F9120
:100270006F915F914F913F912F910F900FBE0F9013
:080280001F901895F894FFCFC0
:00000001FF
